:100000000C9467000C948F000C948F000C948F005C
:100010000C948F000C948F000C948F000C948F0024
:100020000C948F000C948F000C948F000C948F0014
:100030000C948F000C948F000C948F000C948F0004
:100040000C943D050C948F000C94AD050C94870521
:100050000C948F000C948F000C948F000C948F00E4
:100060000C948F000C948F007C0183018F01A00100
:10007000A201A901B501C601DC01DE0100000008F2
:10008000000201000003040700000000000000005F
:1000900000000000250028002B00000000002400C4
:1000A00027002A00040404040404040402020202D7
:1000B000020203030303030301020408102040802B
:1000C000010204081020010204081020DF05112499
:1000D0001FBECFEFD8E0DEBFCDBF11E0A0E0B1E0A2
:1000E000E6E5F5E102C005900D92AE32B107D9F711
:1000F00021E0AEE2B1E001C01D92A23FB207E1F7FC
:1001000010E0C7E6D0E004C02197FE010E94EA0794
:10011000C636D107C9F70E9440060C94A90A0C9470
:10012000000090E0FC01E854FF4F2491FC01EC55E5
:10013000FF4F8491882399F090E0880F991FFC016C
:10014000E656FF4FA591B491FC01E057FF4F859112
:1001500094918FB7F894EC91E22BEC938FBF0895B4
:1001600090E0FC01E458FF4F3491FC01E854FF4F4C
:100170002491FC01EC55FF4FE491EE2309F43BC0C0
:10018000332339F1333091F038F43130A9F0323083
:1001900001F584B58F7D12C0373091F03830A1F071
:1001A0003430B9F4809180008F7D03C0809180004D
:1001B0008F77809380000DC084B58F7784BD09C090
:1001C0008091B0008F7703C08091B0008F7D8093C5
:1001D000B000F0E0EE0FFF1FE057FF4FA591B49184
:1001E0008FB7F894EC91611103C020952E2301C0C4
:1001F0002E2B2C938FBF0895CF93DF93EC0180912A
:10020000DC019091DD01029709F5C130D10569F05B
:1002100024F42097D9F460E009C0C230D10561F020
:10022000C330D10599F460E008C061E08091E0013D
:100230000E94B00061E006C061E08091E0010E9490
:10024000B00060E08091E2010E94B0008091DC018A
:100250009091DD01049709F03FC0C130D105B9F09C
:100260004CF42097C9F561E08091E0010E94B00054
:1002700060E013C0C230D105D9F0C330D10561F5BB
:1002800061E08091E0010E94B00060E017C060E092
:100290008091E0010E94B00061E08091E2010E9443
:1002A000B00061E08091E4010E94B00060E010C005
:1002B00060E08091E0010E94B00061E08091E20185
:1002C0000E94B00060E08091E4010E94B00061E013
:1002D0008091E6010E94B0008091DC019091DD01E7
:1002E000059709F086C0CA30D10508F082C0FE012A
:1002F000EC5CFF4F0C94EA0760E08091E0010E9403
:10030000B00061E061C060E08091E0010E94B00057
:1003100061E08091E2010E94B00060E05AC060E0BC
:100320008091E0010E94B00061E08091E2010E94B2
:10033000B00060E08091E4010E94B00061E04EC036
:1003400060E001C061E08091E0010E94B00061E0E6
:1003500006C061E08091E0010E94B00060E0809101
:10036000E2010E94B00060E00BC061E08091E0011A
:100370000E94B00060E08091E2010E94B00061E064
:100380008091E4010E94B00061E010C061E08091C2
:10039000E0010E94B00060E08091E2010E94B000A4
:1003A00061E08091E4010E94B00060E08091E6018C
:1003B0000E94B00060E017C061E001C060E0809181
:1003C000E0010E94B00060E08091E2010E94B00074
:1003D00061E08091E4010E94B00060E08091E6015C
:1003E0000E94B00061E08091E801DF91CF910C9410
:1003F000B000DF91CF9108953FB7F8948091330119
:1004000090913401A0913501B091360126B5A89B99
:1004100005C02F3F19F00196A11DB11D3FBFBA2F96
:10042000A92F982F8827820F911DA11DB11DBC01F6
:10043000CD0142E0660F771F881F991F4A95D1F7BB
:1004400008954F925F926F927F928F929F92AF9298
:10045000BF92EF92FF920F931F93CF93DF93EC0124
:1004600097FF04C0CC27DD27C81BD90B1816190627
:100470003CF481E090E09093D5018093D40106C0D4
:10048000892B21F01092D5011092D40104E010E0E4
:100490008AE0E82EF12C209709F468C00E94FC0144
:1004A0008090EA019090EB01A090EC01B090ED01FA
:1004B0002B013C01481859086A087B088090D60136
:1004C0009090D701A090D801B090D9014814590458
:1004D0006A047B0400F36093EA017093EB0180935C
:1004E000EC019093ED012091D4013091D5018091E0
:1004F000DE019091DF012130310589F4019690935E
:10050000DF018093DE012091DA013091DB01821757
:100510009307C1F41092DF011092DE0113C0892B02
:1005200041F48091DA019091DB019093DF01809397
:10053000DE018091DE019091DF0101979093DF0150
:100540008093DE0121972091DC013091DD018091C3
:10055000DE019091DF012530310511F4B70101C0B2
:10056000B8010E94B7070E94FC0095CFDF91CF91A0
:100570001F910F91FF90EF90BF90AF909F908F9041
:100580007F906F905F904F900895CF92DF92EF929F
:10059000FF920F931F93CF93DF936C017A018B012E
:1005A000C0E0D0E0CE15DF0589F0D8016D918D0156
:1005B000D601ED91FC910190F081E02DC6010995E5
:1005C000892B11F47E0102C02196ECCFC701DF9187
:1005D000CF911F910F91FF90EF90DF90CF900895F2
:1005E000FC01918D828D981761F0828DDF01A80F3B
:1005F000B11D5D968C91928D9F5F9F73928F90E05D
:1006000008958FEF9FEF0895FC01918D828D9817CB
:1006100031F0828DE80FF11D858D90E008958FEF08
:100620009FEF0895FC01918D228D892F90E0805CD1
:100630009F4F821B91098F739927089587E391E05B
:100640000E94120321E0892B09F420E0822F0895F3
:10065000FC01848DDF01A80FB11DA35ABF4F2C915F
:10066000848D90E001968F739927848FA689B7892E
:100670002C93A089B1898C9180648C93938D848D07
:10068000981306C00288F389E02D80818F7D8083D6
:100690000895EF92FF920F931F93CF93DF93EC0196
:1006A00081E0888F9B8D8C8D981305C0E889F9892E
:1006B000808185FD24C0F62E0B8D10E00F5F1F4F4B
:1006C0000F731127E02E8C8DE8120CC00FB607FCBB
:1006D000FACFE889F989808185FFF5CFCE010E94A4
:1006E0002803F1CF8B8DFE01E80FF11DE35AFF4F78
:1006F000F0820B8FEA89FB898081806207C0EE89D6
:10070000FF896083E889F98980818064808381E042
:1007100090E0DF91CF911F910F91FF90EF9008959E
:10072000CF93DF93EC01888D8823C9F0EA89FB8998
:10073000808185FD05C0A889B9898C9186FD0FC08F
:100740000FB607FCF5CF808185FFF2CFA889B98964
:100750008C9185FFEDCFCE010E942803E7CFDF917A
:10076000CF91089580E090E0892B29F00E941E032C
:1007700081110C94000008958F929F92AF92BF92C6
:10078000DF92EF92FF920F931F93CF93DF937C0141
:10079000812C87E8982E83E9A82E83E0B82E94E177
:1007A000D92EC0910001D0910101CE15DF05A4F52D
:1007B000D7FF03C001E010E001C08E012091DA01F3
:1007C0003091DB01032E000C440B550BC501B40125
:1007D0000E94CB07CA01B9019801110F440B550BB8
:1007E0000E94CB072093D6013093D7014093D801C4
:1007F0005093D90180910201909103019C01D29EF6
:10080000C001D39E900D11240E9421022596D09301
:100810000101C0930001C5CFDF91CF911F910F91CE
:10082000FF90EF90DF90BF90AF909F908F900895D2
:1008300042E050E06AE171E087E391E00C94C50288
:100840008F929F92AF92BF92CF92DF92EF92FF92E0
:100850001F93CF93DF93C12C87E8D82E83E9E82E2E
:1008600083E0F82E14E1C0910001D0910101C3335F
:10087000D1058CF12091DA013091DB01032E000CBF
:10088000440B550BC701B6010E94CB074E010D2E3C
:10089000000CAA08BB08CA01B901A50194010E9475
:1008A000CB072093D6013093D7014093D8015093C2
:1008B000D90180910201909103019C01129FC00116
:1008C000139F900D11240E9421022597D0930101BE
:1008D000C0930001C8CFDF91CF911F91FF90EF909F
:1008E000DF90CF90BF90AF909F908F900895CF935F
:1008F000DF93EC0188819981009711F00E94BB0879
:10090000198218821D821C821B821A82DF91CF916C
:1009100008950E941D0A0F931F93CF93DF93EC015C
:1009200088819981009729F02A813B812617370712
:1009300088F48B016F5F7F4F0E945309009761F02D
:10094000998388831B830A832C813D81232B11F497
:10095000FC01108281E001C080E0DF91CF911F9106
:100960000F910895EF92FF920F931F93CF93DF9310
:10097000EC01FB0184819581E080F1800C811D8177
:10098000E114F104B1F00097B9F0080F191FB80194
:10099000CE010E948B04882361F0288139818C81EB
:1009A0009D81B701820F931F0E942B0A1D830C8328
:1009B00003C0CE010E947704CE01DF91CF911F9139
:1009C0000F91FF90EF900895EF92FF920F931F9376
:1009D000CF93DF93EC017B018A01BA010E948B0463
:1009E000811104C0CE010E94770407C01D830C83CF
:1009F000B701888199810E942B0ACE01DF91CF91A6
:100A00001F910F91FF90EF900895EF92FF920F9337
:100A10001F93CF93DF93CDB7DEB762970FB6F894ED
:100A2000DEBF0FBECDBF8C01CB01F8011182108259
:100A3000138212821582148250E09E012F5F3F4F75
:100A40007901B9010E94320AF70101900020E9F70B
:100A50003197AF014E195F09B701C8010E94E40444
:100A600062960FB6F894DEBF0FBECDBFDF91CF9177
:100A70001F910F91FF90EF9008951F920F920FB664
:100A80000F9211242F933F938F939F93AF93BF9314
:100A900080912F0190913001A0913101B0913201EC
:100AA00030912E0123E0230F2D3720F40196A11D54
:100AB000B11D05C026E8230F0296A11DB11D20938C
:100AC0002E0180932F0190933001A0933101B093B8
:100AD00032018091330190913401A0913501B091A0
:100AE00036010196A11DB11D80933301909334010D
:100AF000A0933501B0933601BF91AF919F918F9133
:100B00003F912F910F900FBE0F901F9018951F923D
:100B10000F920FB60F9211242F933F934F935F9331
:100B20006F937F938F939F93AF93BF93EF93FF93B5
:100B300087E391E00E942803FF91EF91BF91AF916D
:100B40009F918F917F916F915F914F913F912F91E5
:100B50000F900FBE0F901F9018951F920F920FB617
:100B60000F9211242F938F939F93EF93FF93E09114
:100B70004701F09148018081E0914D01F0914E01D3
:100B800082FD12C09081809150018F5F8F73209100
:100B90005101821751F0E0915001F0E0E95CFE4F05
:100BA000958F8093500101C08081FF91EF919F91BB
:100BB0008F912F910F900FBE0F901F901895CF938C
:100BC000DF93E7E3F1E01382128288EE93E0A0E086
:100BD000B0E084839583A683B7838EE091E0918310
:100BE000808385EC90E09587848784EC90E09787FC
:100BF000868780EC90E0918B808B81EC90E0938BEA
:100C0000828B82EC90E0958B848B86EC90E0978BC6
:100C1000868B118E128E138E148EC4EDD1E01B863E
:100C20001A86198218821E8A1F8A188E198E88ECDD
:100C300090E09F838E8388E090E09D878C8789E099
:100C400090E09F878E878AE090E0998B888B8BE07D
:100C500090E09B8B8A8B88E00E9491008E850E9499
:100C6000910088890E9491008A890E9491001D8AC2
:100C70001C8A84E090E099878887DF91CF9108955E
:100C8000CF93DF93CDB7DEB72C970FB6F894DEBFC6
:100C90000FBECDBF789484B5826084BD84B5816079
:100CA00084BD85B5826085BD85B5816085BD809137
:100CB0006E00816080936E001092810080918100AF
:100CC00082608093810080918100816080938100A7
:100CD000809180008160809380008091B100846069
:100CE0008093B1008091B00081608093B0008091CA
:100CF0007A00846080937A0080917A008260809389
:100D00007A0080917A00816080937A0080917A00E5
:100D1000806880937A001092C100E0914701F091C1
:100D2000480182E08083E0914301F0914401108208
:100D3000E0914501F09146018FEC808310924F01C4
:100D4000E0914B01F0914C0186E08083E0914901F4
:100D5000F0914A01808180618083E0914901F091A6
:100D60004A01808188608083E0914901F0914A01C5
:100D7000808180688083E0914901F0914A018081FF
:100D80008F7D808300ED17E098EEE92E93E0F92E39
:100D900020E9C22EDD24D39422242A94322C60919F
:100DA0000001709101014AE0CE0101960E94050503
:100DB00018861F821A8619861C861B864FE050E013
:100DC0006DE171E0CE0107960E94E404BE016F5F01
:100DD0007F4FCE0107960E94B204FC0144815581E9
:100DE0006081718187E391E00E94C5028F819885BF
:100DF0000E94BB0889819A810E94BB080E94180446
:100E000088EC90E00E94BC036090020170900301A6
:100E1000609EC001619E900D709E900D11240E94F5
:100E200021020E9420046E9CC0016F9C900D7E9C4C
:100E3000900D11240E94210284E690E00E94BC03E0
:100E40006C9CC0016D9C900D7C9C900D11240E94A7
:100E50002102309203012092020160910001709101
:100E600001014AE0CE0101960E94050518861F8205
:100E70001A8619861C861B864FE050E06DE171E0F2
:100E8000CE0107960E94E404BE016F5F7F4FCE0142
:100E900007960E94B204FC014481558160817181F2
:100EA00087E391E00E94C5028F8198850E94BB086C
:100EB00089819A810E94BB080E94180488EC90E006
:100EC0000E94BC036090020170900301609EC0010B
:100ED000619E900D709E900D11240E9421020E942F
:100EE00020046E9CC0016F9C900D7E9C900D11247F
:100EF0000E94210284E690E00E94BC036C9CC00129
:100F00006D9C900D7C9C900D11240E94210281E02B
:100F100090E090930301809302010E94FC014B0139
:100F20005C0180ED482E87E0582E612C712C0E94C8
:100F3000FC01DC01CB0188199909AA09BB09883E8B
:100F40009340A105B10558F091E0491A5108610894
:100F50007108E8EE8E0EE3E09E1EA11CB11C411448
:100F600051046104710419F70E94B20318CF97FB72
:100F7000072E16F4009407D077FD09D00E94F007E1
:100F800007FC05D03EF4909581959F4F089570958C
:100F900061957F4F0895052E97FB1EF400940E94E3
:100FA000E20757FD07D00E94040807FC03D04EF467
:100FB0000C94E20750954095309521953F4F4F4F47
:100FC0005F4F089590958095709561957F4F8F4FF5
:100FD0009F4F0895EE0FFF1F0590F491E02D0994A7
:100FE000AA1BBB1B51E107C0AA1FBB1FA617B7074F
:100FF00010F0A61BB70B881F991F5A95A9F780956B
:101000009095BC01CD010895A1E21A2EAA1BBB1B2D
:10101000FD010DC0AA1FBB1FEE1FFF1FA217B307C4
:10102000E407F50720F0A21BB30BE40BF50B661FDA
:10103000771F881F991F1A9469F76095709580959E
:1010400090959B01AC01BD01CF010895CF93DF9333
:101050008230910510F482E090E0E091F001F0918F
:10106000F10120E030E0C0E0D0E0309711F14081A4
:10107000518148175907C0F04817590761F4828118
:101080009381209719F09B838A832BC09093F10161
:101090008093F00126C02115310519F0421753073E
:1010A00018F49A01BE01DF01EF010280F381E02D07
:1010B000DCCF2115310509F1281B390B243031050E
:1010C00090F412968D919C9113976115710521F002
:1010D000FB019383828304C09093F1018093F0011C
:1010E000FD01329644C0FD01E20FF31F81939193FD
:1010F000225031092D933C933AC02091EE0130915A
:10110000EF01232B41F42091060130910701309328
:10111000EF012093EE01209104013091050121158A
:10112000310541F42DB73EB74091080150910901B6
:10113000241B350BE091EE01F091EF01E217F3076C
:10114000A0F42E1B3F0B2817390778F0AC014E5F37
:101150005F4F2417350748F04E0F5F1F5093EF0184
:101160004093EE018193919302C0E0E0F0E0CF0163
:10117000DF91CF9108950F931F93CF93DF93009743
:1011800009F48CC0FC013297138212820091F001A5
:101190001091F1010115110581F420813181820F37
:1011A000931F2091EE013091EF012817390779F54F
:1011B000F093EF01E093EE0171C0D80140E050E000
:1011C000AE17BF0750F412962D913C911397AD01C5
:1011D0002115310509F1D901F3CF9D01DA013383DE
:1011E000228360817181860F971F8217930769F4AC
:1011F000EC0128813981260F371F2E5F3F4F318345
:1012000020838A819B8193838283452B29F4F093E9
:10121000F101E093F00142C01396FC93EE93129714
:10122000ED01499159919E01240F351FE217F307F3
:1012300071F480819181840F951F029611969C9381
:101240008E938281938113969C938E931297E0E004
:10125000F0E0D80112968D919C911397009719F0A8
:10126000F8018C01F6CF8D919C9198012E5F3F4F34
:10127000820F931F2091EE013091EF01281739075B
:1012800069F4309729F41092F1011092F00102C034
:10129000138212821093EF010093EE01DF91CF9140
:1012A0001F910F910895A0E0B0E0E9E5F9E00C94FA
:1012B000760AEC01009721F4CB010E942608B8C001
:1012C000FC01E60FF71F9C0122503109E217F307DA
:1012D00008F4ACC0D9010D911C911197061717079E
:1012E000B0F00530110508F49FC0C80104978617B7
:1012F000970708F499C002501109061B170B0193B8
:1013000011936D937C93CF010E94BB088DC05B014C
:10131000A01AB10A4C01800E911EA091F001B0916B
:10132000F10140E050E0E12CF12C109709F44AC0A3
:10133000A815B905D1F56D907C901197630182E0F5
:10134000C80ED11CCA14DB0480F1A3014A195B0941
:101350006A0182E0C80ED11C1296BC9012971396B7
:10136000AC91B5E0CB16D10440F0B282A383518397
:101370004083D9016D937C930AC00E5F1F4FC30158
:10138000800F911FF90191838083EB2DFA2FE114D7
:10139000F10431F0D7011396FC93EE93129744C0F9
:1013A000F093F101E093F0013FC08D919C91119772
:1013B0004817590708F4AC017D0112960D90BC91B5
:1013C000A02DB3CF8091EE019091EF018815990582
:1013D000E1F446175707C8F4809104019091050184
:1013E000009741F48DB79EB74091080150910901D3
:1013F000841B950BE817F907C8F4F093EF01E0930D
:10140000EE01F901718360830FC0CB010E942608B1
:101410007C01009759F0A801BE010E94220ACE016A
:101420000E94BB08C70104C0CE0102C080E090E06A
:10143000CDB7DEB7EEE00C94920A81E090E0F8942C
:101440000C94A90AFB01DC0102C001900D924150ED
:101450005040D8F70895FB01DC0101900D92002067
:10146000E1F708954532510520F4423010F00C9414
:101470003D0AFB011082CB010895BB274A3031F4AD
:10148000992322F4BDE2909581959F4F0C94490ACF
:10149000BB27FB015527AA27880F991FAA1FA4174E
:1014A00010F0A41B83955051B9F7A05DAA3308F042
:1014B000A95DA193009779F7B111B1931192CB0176
:1014C0000C94620ADC01FC01672F71917723E1F72C
:1014D000329704C07C916D9370836291AE17BF0701
:1014E000C8F308952F923F924F925F926F927F922E
:1014F0008F929F92AF92BF92CF92DF92EF92FF9224
:101500000F931F93CF93DF93CDB7DEB7CA1BDB0BCF
:101510000FB6F894DEBF0FBECDBF09942A88398874
:1015200048885F846E847D848C849B84AA84B9847B
:10153000C884DF80EE80FD800C811B81AA81B98187
:10154000CE0FD11D0FB6F894DEBF0FBECDBFED019B
:061550000895F894FFCF9E
:101556000500FFFF0000F2018000000000004903C3
:10156600C5021203F002040390030D0A00437572CC
:0E15760072656E742053706565643A20000043
:00000001FF
